{
  "address": "0x2C80a22d5145B031939A679E4E554ce0E9531066",
  "abi": [
    {
      "inputs": [],
      "name": "foo",
      "outputs": [
        {
          "internalType": "uint256",
          "name": "",
          "type": "uint256"
        }
      ],
      "stateMutability": "pure",
      "type": "function"
    }
  ],
  "transactionHash": "0xad6505bc5d813cb2e23e8de26cdb9e63acd4d487eb0f69f6150b38836d26ae28",
  "args": [],
  "numDeployments": 1,
  "solcInputHash": "840ca348a59d4e56dd2711508fae032c",
  "bytecode": "0x6080604052348015600f57600080fd5b50607780601d6000396000f3fe6080604052348015600f57600080fd5b506004361060285760003560e01c8063c298557814602d575b600080fd5b600060405190815260200160405180910390f3fea2646970667358221220b72a61a19498172c16e3dd47e923813a716c2b1749272efe87dc903ee958638864736f6c63430008090033",
  "devdoc": {
    "kind": "dev",
    "methods": {},
    "version": 1
  },
  "userdoc": {
    "kind": "user",
    "methods": {},
    "version": 1
  },
  "storageLayout": {
    "storage": [],
    "types": null
  }
}